:020000042000DA
:10000000603200206D01002071010020730100208A
:100010007501002077010020790100200000000018
:100020000000000000000000000000007B01002034
:100030007D010020000000007F01002081010020E0
:100040008301002083010020830100208301002020
:100050008301002083010020830100208301002010
:100060008301002083010020830100208301002000
:1000700083010020830100208301002083010020F0
:1000800083010020830100208301002083010020E0
:1000900083010020830100208301002083010020D0
:1000A00083010020830100208301002083010020C0
:1000B00083010020830100208301002083010020B0
:1000C00083010020830100208301002083010020A0
:1000D0008301002083010020830100208301002090
:1000E00083010020830100208301002000F002F83A
:1000F00000F02CF80AA090E8000C82448344AAF196
:100100000107DA4501D100F021F8AFF2090EBAE893
:100110000F0013F0010F18BFFB1A43F0010318473B
:100120006C0600007C060000002300240025002649
:10013000103A28BF78C1FBD8520728BF30C148BF4A
:100140000B6070471FB51FBD10B510BD00F02BF838
:100150001146FFF7F7FF00F000FB00F049F803B489
:10016000FFF7F2FF03BC00F04DF80000084800471D
:10017000FEE7FEE7FEE7FEE7FEE7FEE7FEE7FEE757
:10018000FEE7FEE703480449024A044B70470000BB
:10019000ED00002060300020603200206030002040
:1001A000704770477047754600F028F8AE46050066
:1001B0006946534620F00700854618B020B5FFF782
:1001C000E1FFBDE820404FF000064FF000074FF080
:1001D00000084FF0000B21F00701AC46ACE8C00965
:1001E000ACE8C009ACE8C009ACE8C0098D4670476E
:1001F0000446AFF300802046FFF7B1FF0048704788
:100200000030002001491820ABBEFEE726000200A6
:1002100070472DE9FF4F81B004460D469346A04636
:10022000A946ABEB04060498471BC6EB470A01201E
:10023000009019E01FFA89F11FFA88F00E9A00F079
:1002400036F8BAF1000F07DB09F101097800022145
:1002500001FB1600824402E0022000FB07AA08F11D
:1002600001080098401C00900098B042E2DD05B003
:10027000BDE8F08FF0B507460C4615461E462A200D
:1002800000F05AF9384600F047F9284600F044F9E2
:100290002B2000F051F9611C88B200F03DF9711C6F
:1002A00088B200F039F92C2000F046F9F0BD70B5A5
:1002B00004460D4616462B46224629462046FFF7A1
:1002C000D9FF304600F028F970BD2DE9F04704460B
:1002D0000D4616461F46DDF820A03B46324629460D
:1002E0002046FFF7C7FFA0460EE0A94606E05046AD
:1002F00000F012F909F101001FFA80F9B945F6DDA5
:1003000008F101001FFA80F8B045EEDDBDE8F08786
:1003100010B57E48806940F00C007C49886100205F
:100320007B490860642000F0FDF901207949C1F89B
:100330008801642000F0F6F9012075490C3108604D
:10034000642000F0EFF9112000F0F6F8782000F0BA
:10035000E9F9B12000F0F0F8052000F0E6F83C20C3
:1003600000F0E3F83C2000F0E0F8B22000F0E4F800
:10037000052000F0DAF83C2000F0D7F83C2000F02F
:10038000D4F8B32000F0D8F8052000F0CEF83C20D7
:1003900000F0CBF83C2000F0C8F8052000F0C5F8CC
:1003A0003C2000F0C2F83C2000F0BFF8B42000F080
:1003B000C3F8032000F0B9F8C02000F0BDF82820F1
:1003C00000F0B3F8082000F0B0F8042000F0ADF819
:1003D000C12000F0B1F8C02000F0A7F8C22000F062
:1003E000ABF80D2000F0A1F8002000F09EF8C3202B
:1003F00000F0A2F88D2000F098F82A2000F095F87F
:10040000C42000F099F88D2000F08FF8EE2000F065
:100410008CF8C52000F090F81A2000F086F83620FD
:1004200000F08AF8A02000F080F8E02000F084F8C6
:10043000042000F07AF8222000F077F8072000F07E
:1004400074F80A2000F071F82E2000F06EF83020C9
:1004500000F06BF8252000F068F82A2000F065F81D
:10046000282000F062F8262000F05FF82E2000F02F
:100470005CF83A2000F059F8002000F056F801200E
:1004800000F053F8032000F050F8132000F04DF86E
:10049000E12000F051F8042000F047F8162000F0A9
:1004A00044F8062000F041F80D2000F03EF82D2021
:1004B00000F03BF8262000F038F8232000F035F853
:1004C000272000F032F8272000F02FF8252000F038
:1004D0002CF82D2000F029F83B2000F026F8002011
:1004E00000F023F8012000F020F8042000F01DF8AF
:1004F000132000F01AF83A2000F01EF8052000F052
:1005000014F8292000F018F810BD00000010024077
:10051000888123420080234210B50446201200F057
:100520001DF8E0B200F01AF810BD10B504462046E0
:1005300000F014F810BD000010B504460020054975
:100540000860204600F00AF801200349C1F88C0138
:1005500010BD00008C812342008023420022104BFA
:100560001A60002116E000220D4B103B1A6000F0CB
:1005700080021AB101221B1D1A6003E00022084B01
:100580000C3B1A600122064B103B1A604206100E0B
:100590004A1CD1B20829E6DB0122014B1A607047E0
:1005A0009081234200B500F075F82D482D49086070
:1005B0002D48806940F08D002B4988612B484068A8
:1005C00040F00070294948602948006829490840DE
:1005D00027490860084600682749084324490860FD
:1005E000081F00680020091F0860084600682349AA
:1005F00008431F49091F086021480068002020495E
:100600000860084600681F4908431D490860081F24
:1006100000684FF60F7108401949091F0860084625
:100620000068194908431649091F08601048083036
:10063000006847F6FF6108400D490831086010481E
:100640000830006841F64F7108400D4908310860D4
:100650000E480F490860FF200D490C31086000BDAD
:100660000005FA050CED00E000100240000001401A
:1006700004080140F0FFFF0F030000303333333034
:10068000040C0140BB33333300003343333333387E
:10069000001C014000201F490861C8601420486107
:1006A00000208861C8618120086000208860C8033C
:1006B000194908601748006840F4803015490860FF
:1006C00000BF14480068400C0028FAD013481149B4
:1006D00048601348006840F03200114908600D4836
:1006E000006840F080700B49086000BF094800684E
:1006F000400E0028FAD00748406840F00200054943
:10070000486000BF0348406800F008000828F9D19D
:10071000704700000010024008ED00E000841D005A
:100720000020024042F2283141434FF0E022516163
:10073000002191610121116100BF4FF0E0210969A1
:1007400001F4803121B94FF0E02109690029F4D189
:1007500000214FF0E0221161704708B5FFF722FF3A
:10076000FFF7D6FD4FF470408023A02201210090B6
:100770000846FFF7AAFD00203223642219210090C9
:100780001846FFF746FD00BFFEE700009C0700206B
:0C07900000300020600200002801002062
:04000005200000EDEA
:00000001FF
